S01300004750535F70726F6A6563742E73726563D1
S11300000C943E000C945B000C945B000C945B001D
S11300100C945B000C945B000C945B000C945B00F0
S11300200C945B000C945B000C945B000C945B00E0
S11300300C945B000C945B000C945B000C945B00D0
S11300400C945B000C945B000C945B000C945B00C0
S11300500C94B9000C945D000C945B000C945B0050
S11300600C945B000C945B000C945B000C945B00A0
S11300700C945B000C945B000C945B0011241FBE79
S1130080CFEFD0E1DEBFCDBF11E0A0E0B1E0EEE7FD
S1130090F2E002C005900D92AE30B107D9F723E02B
S11300A0AEE0B1E001C01D92AC36B207E1F70E94A8
S11300B00D010C943D010C9400001F920F920FB699
S11300C00F9211248F939F93EF93FF93F894E091F1
S11300D01201F0911301E050FF4F80818093C6001C
S11300E080911201909113010C9781F481E090E0CA
S11300F090930F0180930E0110921301109212013C
S1130100E1ECF0E080818F7D808309C08091120151
S113011090911301019690931301809312017894A6
S1130120FF91EF919F918F910F900FBE0F901F90B1
S11301301895FC018081813A79F4FB01E40FF51FE5
S113014031979081903A41F480EAFB01808381EAFF
S1130150818382E090E00895FB01E40FF51F808322
S1130160CA0101968232F1E09F0711F480E090E029
S113017008951F920F920FB60F9211242F933F935D
S11301804F935F936F937F938F939F93AF93BF939B
S1130190EF93FF93F894409110015091110160E4A2
S11301A072E086EC90E00E94990090931101809394
S11301B010017894FF91EF91BF91AF919F918F912E
S11301C07F916F915F914F913F912F910F900FBE4F
S11301D00F901F90189528981092C50083E3809380
S11301E0C400E1ECF0E0808188618083A2ECB0E09F
S11301F08C9186608C93808180688083808180620A
S11302008083289A2FEF84E39CE021508040904023
S1130210E1F700C00000000008958FEF81B981E08C
S113022084B9229823980E94EB007894C0E4D2E029
S113023041E452E02DE633E01B9B1DC01A9B1BC01A
S1130240F894888182B9FA01DE0181918D938091BD
S1130250100190911101181619064CF480911001A7
S11302609091110101979093110180931001E2176D
S1110270F30759F778940000DFCFF894FFCF1E
S111027EA0A10000000000000000000D0A0016
S9030000FC
