S01300004750535F70726F6A6563742E73726563D1
S11300000C943E000C945B000C945B000C945B001D
S11300100C945B000C945B000C945B000C945B00F0
S11300200C945B000C945B000C945B000C945B00E0
S11300300C945B000C945B000C945B000C945B00D0
S11300400C945B000C945B000C945B000C945B00C0
S11300500C94C0000C945D000C945B000C945B0049
S11300600C945B000C945B000C945B000C945B00A0
S11300700C94F2000C945B000C945B0011241FBEE2
S1130080CFEFD0E1DEBFCDBF11E0A0E0B1E0E2E10F
S1130090F3E002C005900D92AA30B107D9F723E02E
S11300A0AAE0B1E001C01D92AB36B207E1F70E94AD
S11300B05C010C9487010C9400001F920F920FB600
S11300C00F9211248F939F93EF93FF93F894E091F1
S11300D01101F0911201E050FF4F80818093C6001E
S11300E08091110190911201089759F481E090E0F8
S11300F090930C0180930B01E1ECF0E080818F7D03
S113010080838091110190911201019690931201C4
S1130110809311017894FF91EF919F918F910F90AB
S11301200FBE0F901F901895FC018081843251F40A
S113013014161506C4F4FB01E40FF51F10824F5F7B
S11301405F4F11C0813A79F4FB01E40FF51F319739
S11301509081903A41F480EAFB01808381EA8183B3
S113016082E090E00895FB01E40FF51F8083CA014B
S113017001968232F1E09F0711F480E090E0089547
S11301801F920F920FB60F9211242F933F934F9308
S11301905F936F937F938F939F93AF93BF93EF93EB
S11301A0FF93F89440910F01509110016FE372E0B6
S11301B086EC90E00E9494009093100180930F01CC
S11301C07894FF91EF91BF91AF919F918F917F911F
S11301D06F915F914F913F912F910F900FBE0F90B0
S11301E01F9018951F920F920FB60F9211242F9300
S11301F03F934F935F936F937F938F939F93AF93AB
S1130200BF93EF93FF93F89440910D0150910E0129
S113021063E171E08EEC90E00E94940090930E01F3
S113022080930D017894FF91EF91BF91AF919F91CD
S11302308F917F916F915F914F913F912F910F908B
S11302400FBE0F901F901895CF93DF9315B810929F
S1130250C50083E38093C4001092CD008093CC004A
S1130260E1ECF0E0808188618083A9ECB0E08C91BE
S113027088618C93C2ECD0E0888186608883CAEC64
S1130280D0E08881866088838081806880838C91B7
S113029080688C93808180628083289A2FEF80E726
S11302A092E0215080409040E1F700C0000000003F
S11302B07894DF91CF9108958FEF84B90E9424013F
S11302C045EC50E0C4ECD0E0ADECB0E06CEC70E098
S11302D021E080910B0190910C010197B1F4809180
S11302E00A01813091F4F894FA01108218821C9268
S11302F0FB011082FA01108228831C92FB012083E7
S1130300789410920C0110920B010000E2CFF89443
S1050310FFCF19
S10D0312A0A100020200020D0A007F
S9030000FC
