:100000000C943E000C945B000C945B000C945B0021
:100010000C945B000C945B000C945B000C945B00F4
:100020000C945B000C945B000C945B000C945B00E4
:100030000C945B000C945B000C945B000C945B00D4
:100040000C945B000C945B000C945B000C945B00C4
:100050000C945B000C945B000C945B000C945B00B4
:100060000C945B000C945B000C945B000C945B00A4
:100070000C945D000C945B000C945B0011241FBE7B
:10008000CFEFD0E1DEBFCDBF11E0A0E0B1E0E8E608
:10009000F1E002C005900D92A030B107D9F721E040
:1000A000A0E0B1E001C01D92AD32B207E1F70E94BD
:1000B000AB000C94B2000C9400001F920F920FB68C
:1000C0000F9211248F939F93EF93FF93E0912C0154
:1000D0008091CE00F0E0EE0FFF1FE050FF4F90E068
:1000E0009183808380912C018F5F80932C01FF91FD
:1000F000EF919F918F910F900FBE0F901F901895C9
:10010000CF93DF9315B81092C50081E88093C400A7
:100110001092CD008093CC00A1ECB0E08C9188616E
:100120008C93E9ECF0E0808188618083C2ECD0E0C0
:1001300088818E608883CAECD0E088818E60888355
:100140008C9180688C938081806880837894289AD1
:10015000DF91CF9108958FEF84B90E948000000055
:080160000000FDCFF894FFCF71
:00000001FF
