S01300004750535F70726F6A6563742E73726563D1
S11300000C943E000C945B000C945B000C945B001D
S11300100C945B000C945B000C945B000C945B00F0
S11300200C945B000C945B000C945B000C945B00E0
S11300300C945B000C945B000C945B000C945B00D0
S11300400C945B000C945B000C945B000C945B00C0
S11300500C945D000C945B000C945B000C945B00AE
S11300600C945B000C945B000C945B000C945B00A0
S11300700C9483000C945B000C945B0011241FBE51
S1130080CFEFD0E1DEBFCDBF11E0A0E0B1E0E4EFFF
S1130090F1E002C005900D92A631B107D9F721E035
S11300A0A6E1B1E001C01D92A037B207E1F70E94BA
S11300B0D4000C94F8000C9400001F920F920FB619
S11300C00F9211248F939F93EF93FF93F894299A9F
S11300D0E0916F018091C600F0E0EE0FFF1FEE5B30
S11300E0FE4F90E09183808380916F018F5F8093B6
S11300F06F017894FF91EF919F918F910F900FBEB4
S11301000F901F9018951F920F920FB60F92112403
S11301108F939F93EF93FF93F8942A9AE0916E0143
S11301208091CE00F0E0EE0FFF1FEA5EFE4F90E0FC
S11301309183808380916E018F5F80936E017894A8
S1130140FF91EF919F918F910F900FBE0F901F9091
S11301501895CF93DF9315B81092C50081E880936A
S1130160C4001092CD008093CC00A1ECB0E08C913F
S113017088618C93E9ECF0E0808188618083C2EC33
S1130180D0E0888186608883CAECD0E0888186606C
S113019088838C9180688C93808180688083789434
S11301A0289ADF91CF9108958FEF84B90E94A90016
S11301B040E050E060E071E026E131E0E8ECF0E09E
S11301C0CEECD0E010E090E00000DB01808185FF00
S11301D0FDCF8D918883A217B307C1F74F5F5F4F9F
S11301E04230510519F40000412F592F0000ECCF83
S10701F0F894FFCFAD
S11301F4A0A1000F010407DD091B06291D0000004E
S1090204000000FF0D0ADA
S9030000FC
