:100000000C943E000C945B000C945B000C945B0021
:100010000C945B000C945B000C945B000C945B00F4
:100020000C945B000C945B000C945B000C945B00E4
:100030000C945B000C945B000C945B000C945B00D4
:100040000C945B000C945B000C945B000C945B00C4
:100050000C94DB000C945D000C945B000C945B0032
:100060000C945B000C945B000C945B000C945B00A4
:100070000C940D010C945B000C945B0011241FBECA
:10008000CFEFD0E1DEBFCDBF11E0A0E0B1E0ECE604
:10009000F3E002C005900D92AC30B107D9F723E030
:1000A000ACE0B1E001C01D92AE36B207E1F70E94AC
:1000B00079010C94B4010C9400001F920F920FB6BA
:1000C0000F9211248F939F93EF93FF93F894E091F5
:1000D0001401F0911501E050FF4F80818093C6001C
:1000E00080910D01811111C0809114019091150131
:1000F0000A9711F581E090E090930F0180930E0133
:10010000109215011092140117C08130A9F480914A
:10011000140190911501099779F481E090E0909392
:100120000F0180930E011092150110921401E1EC61
:10013000F0E080818F7D8083809114019091150182
:10014000019690931501809314017894FF91EF919B
:100150009F918F910F900FBE0F901F901895FC01EB
:100160008081843251F414161506C4F4FB01E40FA7
:10017000F51F10824F5F5F4F11C0813A79F4FB0188
:10018000E40FF51F31979081903A41F480EAFB012A
:10019000808381EA818382E090E00895FB01E40F8F
:1001A000F51F8083CA0101968232F1E09F0711F4A6
:1001B00080E090E008951F920F920FB60F921124E5
:1001C0002F933F934F935F936F937F938F939F935F
:1001D000AF93BF93EF93FF93F89440911201509126
:1001E000130162E472E086EC90E00E94AF0090930D
:1001F0001301809312017894FF91EF91BF91AF9119
:100200009F918F917F916F915F914F913F912F912E
:100210000F900FBE0F901F9018951F920F920FB660
:100220000F9211242F933F934F935F936F937F937C
:100230008F939F93AF93BF93EF93FF93F894409165
:1002400010015091110166E171E08EEC90E00E9486
:10025000AF0090931101809310017894FF91EF917A
:10026000BF91AF919F918F917F916F915F914F91CE
:100270003F912F910F900FBE0F901F901895CF9325
:10028000DF9315B881E080930C011092C50083E3E1
:100290008093C4001092CD008093CC00E1ECF0E09C
:1002A000808188618083A9ECB0E08C9188618C9317
:1002B000C2ECD0E0888186608883CAECD0E0888177
:1002C000866088838081806880838C9180688C932D
:1002D000808180628083289A2FEF84E39CE0215004
:1002E00080409040E1F700C000000000DF91CF9116
:1002F00008958FEF84B90E943F01789445EC50E057
:10030000C4ECD0E0ADECB0E06CEC70E021E03FEF8D
:1003100080E792E0315080409040E1F700C000005B
:1003200080910E0190910F010197E1F480910C01F1
:100330008130C1F4F894FA01108218821C92FB01FA
:100340001082FA01108228831C92FB01208378948A
:1003500080910D01811104C010920F0110920E01C5
:0C03600020930D010000D3CFF894FFCFD4
:0C036C00A0A1000405000600030D0A001B
:00000001FF
