S01300004750535F70726F6A6563742E73726563D1
S11300000C943E000C945B000C945B000C945B001D
S11300100C945B000C945B000C945B000C945B00F0
S11300200C945B000C945B000C945B000C945B00E0
S11300300C945B000C945B000C945B000C945B00D0
S11300400C945B000C945B000C945B000C945B00C0
S11300500C9497000C94D3000C945B000C945B00FC
S11300600C945B000C945B000C945B000C945B00A0
S11300700C94B0000C945B000C945B0011241FBE24
S1130080CFEFD0E1DEBFCDBF11E0A0E0B1E0ECE006
S1130090F2E002C005900D92A631B107D9F721E034
S11300A0A6E1B1E001C01D92A734B207E1F70E94B6
S11300B05D000C9404010C9400008FEF84B915B812
S11300C01092C50081E88093C4001092CD00809303
S11300D0CC00A1ECB0E08C9188618C93E9ECF0E069
S11300E0808188618083C2ECD0E088818E608883BF
S11300F0CAECD0E088818E6088838C9180688C9370
S1130100808180688083789440E051E026E131E08A
S1130110A6ECB0E0FA0181918C93E217F307D9F7CA
S113012080914201863109F400000000F3CF1F9250
S11301300F920FB60F9211248F939F9386E191E053
S11301409093450180934401809142018F5F809395
S113015042019F918F910F900FBE0F901F901895A1
S11301601F920F920FB60F9211248F939F93EF93C8
S1130170FF93E09142018091CE00F0E0EE0FFF1F6B
S1130180EA5EFE4F90E091838083809142018F5F0D
S113019080934201FF91EF919F918F910F900FBE39
S11301A00F901F9018951F920F920FB60F92112463
S11301B08F93EF93FF93E0914301F0E0E050FF4F02
S11301C0808180934601E0914301F0E0E050FF4FCD
S11301D080818093C60080914301863119F4109286
S11301E0430105C0809143018F5F80934301E0EC9C
S11301F0F0E080818F7D8083FF91EF918F910F904C
S10F02000FBE0F901F901895F894FFCFCC
S113020CA0A1000F010407DD091B06291D00000035
S109021C000000FF0D0AC2
S9030000FC
